{
  "_format": "hh-sol-artifact-1",
  "contractName": "LimitOrder",
  "sourceName": "contracts/LimitOrder.sol",
  "abi": [
    {
      "inputs": [
        {
          "internalType": "contract ISwapRouter",
          "name": "_swapRouter",
          "type": "address"
        },
        {
          "internalType": "address",
          "name": "admin",
          "type": "address"
        },
        {
          "internalType": "address",
          "name": "executor",
          "type": "address"
        }
      ],
      "stateMutability": "nonpayable",
      "type": "constructor"
    },
    {
      "inputs": [],
      "name": "AccessControlBadConfirmation",
      "type": "error"
    },
    {
      "inputs": [
        {
          "internalType": "address",
          "name": "account",
          "type": "address"
        },
        {
          "internalType": "bytes32",
          "name": "neededRole",
          "type": "bytes32"
        }
      ],
      "name": "AccessControlUnauthorizedAccount",
      "type": "error"
    },
    {
      "anonymous": false,
      "inputs": [
        {
          "indexed": true,
          "internalType": "uint256",
          "name": "orderID",
          "type": "uint256"
        }
      ],
      "name": "OrderCancelled",
      "type": "event"
    },
    {
      "anonymous": false,
      "inputs": [
        {
          "indexed": true,
          "internalType": "uint256",
          "name": "orderID",
          "type": "uint256"
        },
        {
          "indexed": false,
          "internalType": "bytes32",
          "name": "transactionHash",
          "type": "bytes32"
        }
      ],
      "name": "OrderExecuted",
      "type": "event"
    },
    {
      "anonymous": false,
      "inputs": [
        {
          "indexed": true,
          "internalType": "uint256",
          "name": "orderID",
          "type": "uint256"
        },
        {
          "indexed": true,
          "internalType": "address",
          "name": "maker",
          "type": "address"
        },
        {
          "indexed": false,
          "internalType": "address",
          "name": "tokenIn",
          "type": "address"
        },
        {
          "indexed": false,
          "internalType": "address",
          "name": "tokenOut",
          "type": "address"
        },
        {
          "indexed": false,
          "internalType": "uint256",
          "name": "amount",
          "type": "uint256"
        },
        {
          "indexed": false,
          "internalType": "uint256",
          "name": "targetPrice",
          "type": "uint256"
        },
        {
          "indexed": false,
          "internalType": "uint256",
          "name": "expiry",
          "type": "uint256"
        }
      ],
      "name": "OrderPlaced",
      "type": "event"
    },
    {
      "anonymous": false,
      "inputs": [
        {
          "indexed": true,
          "internalType": "bytes32",
          "name": "role",
          "type": "bytes32"
        },
        {
          "indexed": true,
          "internalType": "bytes32",
          "name": "previousAdminRole",
          "type": "bytes32"
        },
        {
          "indexed": true,
          "internalType": "bytes32",
          "name": "newAdminRole",
          "type": "bytes32"
        }
      ],
      "name": "RoleAdminChanged",
      "type": "event"
    },
    {
      "anonymous": false,
      "inputs": [
        {
          "indexed": true,
          "internalType": "bytes32",
          "name": "role",
          "type": "bytes32"
        },
        {
          "indexed": true,
          "internalType": "address",
          "name": "account",
          "type": "address"
        },
        {
          "indexed": true,
          "internalType": "address",
          "name": "sender",
          "type": "address"
        }
      ],
      "name": "RoleGranted",
      "type": "event"
    },
    {
      "anonymous": false,
      "inputs": [
        {
          "indexed": true,
          "internalType": "bytes32",
          "name": "role",
          "type": "bytes32"
        },
        {
          "indexed": true,
          "internalType": "address",
          "name": "account",
          "type": "address"
        },
        {
          "indexed": true,
          "internalType": "address",
          "name": "sender",
          "type": "address"
        }
      ],
      "name": "RoleRevoked",
      "type": "event"
    },
    {
      "inputs": [],
      "name": "DEFAULT_ADMIN_ROLE",
      "outputs": [
        {
          "internalType": "bytes32",
          "name": "",
          "type": "bytes32"
        }
      ],
      "stateMutability": "view",
      "type": "function"
    },
    {
      "inputs": [],
      "name": "EXECUTOR_ROLE",
      "outputs": [
        {
          "internalType": "bytes32",
          "name": "",
          "type": "bytes32"
        }
      ],
      "stateMutability": "view",
      "type": "function"
    },
    {
      "inputs": [
        {
          "internalType": "uint256",
          "name": "_orderID",
          "type": "uint256"
        }
      ],
      "name": "cancelOrder",
      "outputs": [],
      "stateMutability": "nonpayable",
      "type": "function"
    },
    {
      "inputs": [
        {
          "internalType": "uint256",
          "name": "_orderID",
          "type": "uint256"
        }
      ],
      "name": "executeOrder",
      "outputs": [],
      "stateMutability": "nonpayable",
      "type": "function"
    },
    {
      "inputs": [],
      "name": "getOrders",
      "outputs": [
        {
          "internalType": "uint256",
          "name": "orders",
          "type": "uint256"
        }
      ],
      "stateMutability": "view",
      "type": "function"
    },
    {
      "inputs": [
        {
          "internalType": "bytes32",
          "name": "role",
          "type": "bytes32"
        }
      ],
      "name": "getRoleAdmin",
      "outputs": [
        {
          "internalType": "bytes32",
          "name": "",
          "type": "bytes32"
        }
      ],
      "stateMutability": "view",
      "type": "function"
    },
    {
      "inputs": [
        {
          "internalType": "bytes32",
          "name": "role",
          "type": "bytes32"
        },
        {
          "internalType": "address",
          "name": "account",
          "type": "address"
        }
      ],
      "name": "grantRole",
      "outputs": [],
      "stateMutability": "nonpayable",
      "type": "function"
    },
    {
      "inputs": [
        {
          "internalType": "bytes32",
          "name": "role",
          "type": "bytes32"
        },
        {
          "internalType": "address",
          "name": "account",
          "type": "address"
        }
      ],
      "name": "hasRole",
      "outputs": [
        {
          "internalType": "bool",
          "name": "",
          "type": "bool"
        }
      ],
      "stateMutability": "view",
      "type": "function"
    },
    {
      "inputs": [
        {
          "internalType": "enum LimitOrder.OrderType",
          "name": "orderType",
          "type": "uint8"
        },
        {
          "internalType": "address",
          "name": "tokenIn",
          "type": "address"
        },
        {
          "internalType": "address",
          "name": "tokenOut",
          "type": "address"
        },
        {
          "internalType": "uint256",
          "name": "amount",
          "type": "uint256"
        },
        {
          "internalType": "uint256",
          "name": "targetPrice",
          "type": "uint256"
        },
        {
          "internalType": "uint256",
          "name": "expiry",
          "type": "uint256"
        },
        {
          "internalType": "uint16",
          "name": "fee",
          "type": "uint16"
        }
      ],
      "name": "placeOrder",
      "outputs": [
        {
          "internalType": "uint256",
          "name": "orderID",
          "type": "uint256"
        }
      ],
      "stateMutability": "nonpayable",
      "type": "function"
    },
    {
      "inputs": [
        {
          "internalType": "bytes32",
          "name": "role",
          "type": "bytes32"
        },
        {
          "internalType": "address",
          "name": "callerConfirmation",
          "type": "address"
        }
      ],
      "name": "renounceRole",
      "outputs": [],
      "stateMutability": "nonpayable",
      "type": "function"
    },
    {
      "inputs": [
        {
          "internalType": "bytes32",
          "name": "role",
          "type": "bytes32"
        },
        {
          "internalType": "address",
          "name": "account",
          "type": "address"
        }
      ],
      "name": "revokeRole",
      "outputs": [],
      "stateMutability": "nonpayable",
      "type": "function"
    },
    {
      "inputs": [
        {
          "internalType": "uint256",
          "name": "",
          "type": "uint256"
        }
      ],
      "name": "s_orders",
      "outputs": [
        {
          "internalType": "uint16",
          "name": "fee",
          "type": "uint16"
        },
        {
          "internalType": "enum LimitOrder.OrderType",
          "name": "orderType",
          "type": "uint8"
        },
        {
          "internalType": "enum LimitOrder.OrderState",
          "name": "state",
          "type": "uint8"
        },
        {
          "internalType": "bool",
          "name": "executed",
          "type": "bool"
        },
        {
          "internalType": "address",
          "name": "maker",
          "type": "address"
        },
        {
          "internalType": "address",
          "name": "tokenIn",
          "type": "address"
        },
        {
          "internalType": "address",
          "name": "tokenOut",
          "type": "address"
        },
        {
          "internalType": "uint256",
          "name": "amount",
          "type": "uint256"
        },
        {
          "internalType": "uint256",
          "name": "targetPrice",
          "type": "uint256"
        },
        {
          "internalType": "uint256",
          "name": "timestamp",
          "type": "uint256"
        },
        {
          "internalType": "uint256",
          "name": "expiry",
          "type": "uint256"
        },
        {
          "internalType": "bytes32",
          "name": "transactionHash",
          "type": "bytes32"
        }
      ],
      "stateMutability": "view",
      "type": "function"
    },
    {
      "inputs": [
        {
          "internalType": "bytes4",
          "name": "interfaceId",
          "type": "bytes4"
        }
      ],
      "name": "supportsInterface",
      "outputs": [
        {
          "internalType": "bool",
          "name": "",
          "type": "bool"
        }
      ],
      "stateMutability": "view",
      "type": "function"
    },
    {
      "inputs": [],
      "name": "swapRouter",
      "outputs": [
        {
          "internalType": "contract ISwapRouter",
          "name": "",
          "type": "address"
        }
      ],
      "stateMutability": "view",
      "type": "function"
    }
  ],
  "bytecode": "0x60a060405234801561001057600080fd5b5060405161165e38038061165e83398101604081905261002f9161013f565b6001600160a01b03831660805261004760008361007b565b506100727fd8aa0f3194971a2a116679f7c2090f6939c8d4e01a2a8d7e41d55e5351469e638261007b565b5050505061018c565b6000828152602081815260408083206001600160a01b038516845290915281205460ff1661011d576000838152602081815260408083206001600160a01b03861684529091529020805460ff191660011790556100d53390565b6001600160a01b0316826001600160a01b0316847f2f8788117e7eff1d82e926ec794901d17c78024a50270940304540a733656f0d60405160405180910390a4506001610121565b5060005b92915050565b6001600160a01b038116811461013c57600080fd5b50565b60008060006060848603121561015457600080fd5b835161015f81610127565b602085015190935061017081610127565b604085015190925061018181610127565b809150509250925092565b6080516114a96101b5600039600081816102230152818161075f015261086b01526114a96000f3fe608060405234801561001057600080fd5b50600436106100ea5760003560e01c806391d148541161008c578063a6f3c50f11610066578063a6f3c50f146101e0578063b8f234a81461020b578063c31c9c071461021e578063d547741f1461025d57600080fd5b806391d14854146101b257806394f61134146101c5578063a217fddf146101d857600080fd5b80632e2dc43e116100c85780632e2dc43e1461016f5780632f2ff15d1461017757806336568abe1461018c578063514fcac71461019f57600080fd5b806301ffc9a7146100ef57806307bd026514610117578063248a9ca31461014c575b600080fd5b6101026100fd366004611143565b610270565b60405190151581526020015b60405180910390f35b61013e7fd8aa0f3194971a2a116679f7c2090f6939c8d4e01a2a8d7e41d55e5351469e6381565b60405190815260200161010e565b61013e61015a366004611174565b60009081526020819052604090206001015490565b60015461013e565b61018a6101853660046111a9565b6102a7565b005b61018a61019a3660046111a9565b6102d2565b61018a6101ad366004611174565b61030a565b6101026101c03660046111a9565b6104f8565b61018a6101d3366004611174565b610521565b61013e600081565b6101f36101ee366004611174565b610948565b60405161010e9c9b9a999897969594939291906111eb565b61013e61021936600461127f565b6109d7565b6102457f000000000000000000000000000000000000000000000000000000000000000081565b6040516001600160a01b03909116815260200161010e565b61018a61026b3660046111a9565b610dcd565b60006001600160e01b03198216637965db0b60e01b14806102a157506301ffc9a760e01b6001600160e01b03198316145b92915050565b6000828152602081905260409020600101546102c281610df2565b6102cc8383610dff565b50505050565b6001600160a01b03811633146102fb5760405163334bd91960e11b815260040160405180910390fd5b6103058282610e91565b505050565b60015481106103575760405162461bcd60e51b815260206004820152601460248201527313dc99195c88191bd95cc81b9bdd08195e1a5cdd60621b60448201526064015b60405180910390fd5b336001600160a01b03166001828154811061037457610374611301565b6000918252602090912060089091020154600160281b90046001600160a01b0316146103d45760405162461bcd60e51b815260206004820152600f60248201526e2737ba1037b93232b91036b0b5b2b960891b604482015260640161034e565b600181815481106103e7576103e7611301565b6000918252602090912060089091020154640100000000900460ff16156104435760405162461bcd60e51b815260206004820152601060248201526f105b1c9958591e48195e1958dd5d195960821b604482015260640161034e565b60026001828154811061045857610458611301565b60009182526020909120600890910201805463ff00000019166301000000836002811115610488576104886111d5565b021790555060018082815481106104a1576104a1611301565b60009182526020822060089091020180549215156401000000000264ff00000000199093169290921790915560405182917f61b9399f2f0f32ca39ce8d7be32caed5ec22fe07a6daba3a467ed479ec60658291a250565b6000918252602082815260408084206001600160a01b0393909316845291905290205460ff1690565b7fd8aa0f3194971a2a116679f7c2090f6939c8d4e01a2a8d7e41d55e5351469e6361054b81610df2565b60015482106105935760405162461bcd60e51b815260206004820152601460248201527313dc99195c88191bd95cc81b9bdd08195e1a5cdd60621b604482015260640161034e565b336001600160a01b0316600183815481106105b0576105b0611301565b6000918252602090912060089091020154600160281b90046001600160a01b0316036106115760405162461bcd60e51b815260206004820152601060248201526f24b73b30b634b21032bc32b1baba37b960811b604482015260640161034e565b6001828154811061062457610624611301565b6000918252602090912060089091020154640100000000900460ff16156106805760405162461bcd60e51b815260206004820152601060248201526f105b1c9958591e48195e1958dd5d195960821b604482015260640161034e565b426001838154811061069457610694611301565b906000526020600020906008020160060154116106dd5760405162461bcd60e51b8152602060048201526007602482015266115e1c1a5c995960ca1b604482015260640161034e565b6000600183815481106106f2576106f2611301565b60009182526020909120600890910201805464ffff00000019166401010000001780825560018201546003830154929350610745926001600160a01b0391821692600160281b9004909116903090610efc565b60018101546003820154610784916001600160a01b0316907f000000000000000000000000000000000000000000000000000000000000000090611006565b600080825462010000900460ff1660018111156107a3576107a36111d5565b146107d457670de0b6b3a7640000826004015483600301546107c5919061132d565b6107cf9190611344565b6107e8565b816004015482600301546107e89190611344565b604080516101008101825260018501546001600160a01b039081168252600286015481166020830152855461ffff811693830193909352600160281b90920490911660608201529091506000906080810161084442603c611366565b81526020018460030154815260200183815260200160006001600160a01b031681525090507f00000000000000000000000000000000000000000000000000000000000000006001600160a01b031663414bf389826040518263ffffffff1660e01b81526004016108b59190611379565b6020604051808303816000875af11580156108d4573d6000803e3d6000fd5b505050506040513d601f19601f820116820180604052508101906108f891906113f6565b5061090460014361140f565b406007840181905560405190815285907f42a09ea063cf94c2bfccd1f9269e4979615c8b34caaf993364922fae96892df89060200160405180910390a25050505050565b6001818154811061095857600080fd5b60009182526020909120600890910201805460018201546002830154600384015460048501546005860154600687015460079097015461ffff8716985060ff620100008804811698630100000089048216986401000000008104909216976001600160a01b03600160281b90930483169790831696921694919391928c565b6000428311610a195760405162461bcd60e51b815260206004820152600e60248201526d496e76616c69642065787069727960901b604482015260640161034e565b60008511610a695760405162461bcd60e51b815260206004820152601d60248201527f416d6f756e74206d7573742062652067726561746572207468616e2030000000604482015260640161034e565b60008411610ac55760405162461bcd60e51b815260206004820152602360248201527f546172676574207072696365206d75737420626520677265617465722074686160448201526206e20360ec1b606482015260840161034e565b60008261ffff16118015610ade57506127108261ffff16105b610b185760405162461bcd60e51b815260206004820152600b60248201526a496e76616c69642066656560a81b604482015260640161034e565b856001600160a01b0316876001600160a01b031603610b6a5760405162461bcd60e51b815260206004820152600e60248201526d496e76616c696420746f6b656e7360901b604482015260640161034e565b60006040518061018001604052808461ffff1681526020018a6001811115610b9457610b946111d5565b815260200160008152600060208083018290523360408401526001600160a01b038c811660608501528b16608084015260a083018a905260c083018990524260e0840152610100830188905261012090920181905260018054808201825591819052835160089092027fb10e2d527612073b26eecdfd717e6a320cf44b4afac2b0732d9fcbe2b7fa0cf601805461ffff90931661ffff1984168117825593850151949550859490939092849262ffffff199091169091179062010000908490811115610c6257610c626111d5565b021790555060408201518154829063ff00000019166301000000836002811115610c8e57610c8e6111d5565b0217905550606082015181546080840151640100000000600160c81b03199091166401000000009215159290920265010000000000600160c81b03191691909117600160281b6001600160a01b039283160217825560a0830151600180840180546001600160a01b031990811693851693909317905560c0850151600285018054909316931692909217905560e08301516003830155610100830151600483015561012083015160058301556101408301516006830155610160909201516007909101558054600091610d609161140f565b604080516001600160a01b038c811682528b1660208201529081018990526060810188905260808101879052909150339082907f755d2c8cac50ab8bfedf1ea6325a96e66df1b9030d4992906e0d8446dddfb3ab9060a00160405180910390a39998505050505050505050565b600082815260208190526040902060010154610de881610df2565b6102cc8383610e91565b610dfc8133611106565b50565b6000610e0b83836104f8565b610e89576000838152602081815260408083206001600160a01b03861684529091529020805460ff19166001179055610e413390565b6001600160a01b0316826001600160a01b0316847f2f8788117e7eff1d82e926ec794901d17c78024a50270940304540a733656f0d60405160405180910390a45060016102a1565b5060006102a1565b6000610e9d83836104f8565b15610e89576000838152602081815260408083206001600160a01b0386168085529252808320805460ff1916905551339286917ff6391f5c32d9c69d2a47ea670b442974b53935d1edc7fd64eb21e047a839171b9190a45060016102a1565b604080516001600160a01b0385811660248301528481166044830152606480830185905283518084039091018152608490920183526020820180516001600160e01b03166323b872dd60e01b1790529151600092839290881691610f609190611422565b6000604051808303816000865af19150503d8060008114610f9d576040519150601f19603f3d011682016040523d82523d6000602084013e610fa2565b606091505b5091509150818015610fcc575080511580610fcc575080806020019051810190610fcc9190611451565b610ffe5760405162461bcd60e51b815260206004820152600360248201526229aa2360e91b604482015260640161034e565b505050505050565b604080516001600160a01b038481166024830152604480830185905283518084039091018152606490920183526020820180516001600160e01b031663095ea7b360e01b17905291516000928392908716916110629190611422565b6000604051808303816000865af19150503d806000811461109f576040519150601f19603f3d011682016040523d82523d6000602084013e6110a4565b606091505b50915091508180156110ce5750805115806110ce5750808060200190518101906110ce9190611451565b6110ff5760405162461bcd60e51b8152602060048201526002602482015261534160f01b604482015260640161034e565b5050505050565b61111082826104f8565b61113f5760405163e2517d3f60e01b81526001600160a01b03821660048201526024810183905260440161034e565b5050565b60006020828403121561115557600080fd5b81356001600160e01b03198116811461116d57600080fd5b9392505050565b60006020828403121561118657600080fd5b5035919050565b80356001600160a01b03811681146111a457600080fd5b919050565b600080604083850312156111bc57600080fd5b823591506111cc6020840161118d565b90509250929050565b634e487b7160e01b600052602160045260246000fd5b61ffff8d168152610180810160028d10611207576112076111d5565b8c602083015260038c1061121d5761121d6111d5565b8b6040830152611231606083018c15159052565b6001600160a01b03998a16608083015297891660a08201529590971660c086015260e08501939093526101008401919091526101208301526101408201526101600191909152949350505050565b600080600080600080600060e0888a03121561129a57600080fd5b8735600281106112a957600080fd5b96506112b76020890161118d565b95506112c56040890161118d565b9450606088013593506080880135925060a0880135915060c088013561ffff811681146112f157600080fd5b8091505092959891949750929550565b634e487b7160e01b600052603260045260246000fd5b634e487b7160e01b600052601160045260246000fd5b80820281158282048414176102a1576102a1611317565b60008261136157634e487b7160e01b600052601260045260246000fd5b500490565b808201808211156102a1576102a1611317565b81516001600160a01b03908116825260208084015182169083015260408084015162ffffff169083015260608084015191821690830152610100820190506080830151608083015260a083015160a083015260c083015160c083015260e08301516113ef60e08401826001600160a01b03169052565b5092915050565b60006020828403121561140857600080fd5b5051919050565b818103818111156102a1576102a1611317565b6000825160005b818110156114435760208186018101518583015201611429565b506000920191825250919050565b60006020828403121561146357600080fd5b8151801515811461116d57600080fdfea2646970667358221220ca36813f3257a0b1f81b472d2c66ece642d705f88427633e2cb8d1438336dc3364736f6c634300081c0033",
  "linkReferences": {},
  "deployedLinkReferences": {}
}