{
  "_format": "hh-sol-artifact-1",
  "contractName": "AlchemyTokens",
  "sourceName": "contracts/AlchemyTokens.sol",
  "abi": [
    {
      "inputs": [],
      "stateMutability": "nonpayable",
      "type": "constructor"
    },
    {
      "anonymous": false,
      "inputs": [
        {
          "indexed": true,
          "internalType": "address",
          "name": "account",
          "type": "address"
        },
        {
          "indexed": true,
          "internalType": "address",
          "name": "operator",
          "type": "address"
        },
        {
          "indexed": false,
          "internalType": "bool",
          "name": "approved",
          "type": "bool"
        }
      ],
      "name": "ApprovalForAll",
      "type": "event"
    },
    {
      "anonymous": false,
      "inputs": [
        {
          "indexed": true,
          "internalType": "address",
          "name": "previousOwner",
          "type": "address"
        },
        {
          "indexed": true,
          "internalType": "address",
          "name": "newOwner",
          "type": "address"
        }
      ],
      "name": "OwnershipTransferred",
      "type": "event"
    },
    {
      "anonymous": false,
      "inputs": [
        {
          "indexed": true,
          "internalType": "address",
          "name": "operator",
          "type": "address"
        },
        {
          "indexed": true,
          "internalType": "address",
          "name": "from",
          "type": "address"
        },
        {
          "indexed": true,
          "internalType": "address",
          "name": "to",
          "type": "address"
        },
        {
          "indexed": false,
          "internalType": "uint256[]",
          "name": "ids",
          "type": "uint256[]"
        },
        {
          "indexed": false,
          "internalType": "uint256[]",
          "name": "values",
          "type": "uint256[]"
        }
      ],
      "name": "TransferBatch",
      "type": "event"
    },
    {
      "anonymous": false,
      "inputs": [
        {
          "indexed": true,
          "internalType": "address",
          "name": "operator",
          "type": "address"
        },
        {
          "indexed": true,
          "internalType": "address",
          "name": "from",
          "type": "address"
        },
        {
          "indexed": true,
          "internalType": "address",
          "name": "to",
          "type": "address"
        },
        {
          "indexed": false,
          "internalType": "uint256",
          "name": "id",
          "type": "uint256"
        },
        {
          "indexed": false,
          "internalType": "uint256",
          "name": "value",
          "type": "uint256"
        }
      ],
      "name": "TransferSingle",
      "type": "event"
    },
    {
      "anonymous": false,
      "inputs": [
        {
          "indexed": false,
          "internalType": "string",
          "name": "value",
          "type": "string"
        },
        {
          "indexed": true,
          "internalType": "uint256",
          "name": "id",
          "type": "uint256"
        }
      ],
      "name": "URI",
      "type": "event"
    },
    {
      "inputs": [
        {
          "internalType": "address",
          "name": "account",
          "type": "address"
        },
        {
          "internalType": "uint256",
          "name": "id",
          "type": "uint256"
        }
      ],
      "name": "balanceOf",
      "outputs": [
        {
          "internalType": "uint256",
          "name": "",
          "type": "uint256"
        }
      ],
      "stateMutability": "view",
      "type": "function"
    },
    {
      "inputs": [
        {
          "internalType": "address[]",
          "name": "accounts",
          "type": "address[]"
        },
        {
          "internalType": "uint256[]",
          "name": "ids",
          "type": "uint256[]"
        }
      ],
      "name": "balanceOfBatch",
      "outputs": [
        {
          "internalType": "uint256[]",
          "name": "",
          "type": "uint256[]"
        }
      ],
      "stateMutability": "view",
      "type": "function"
    },
    {
      "inputs": [
        {
          "internalType": "address",
          "name": "_account",
          "type": "address"
        },
        {
          "internalType": "enum IAlchemyTokens.Token",
          "name": "_token",
          "type": "uint8"
        },
        {
          "internalType": "uint256",
          "name": "_amount",
          "type": "uint256"
        }
      ],
      "name": "burn",
      "outputs": [],
      "stateMutability": "nonpayable",
      "type": "function"
    },
    {
      "inputs": [
        {
          "internalType": "enum IAlchemyTokens.Token",
          "name": "token",
          "type": "uint8"
        }
      ],
      "name": "getBaseUri",
      "outputs": [
        {
          "internalType": "string",
          "name": "",
          "type": "string"
        }
      ],
      "stateMutability": "view",
      "type": "function"
    },
    {
      "inputs": [
        {
          "internalType": "enum IAlchemyTokens.Token",
          "name": "tokenType",
          "type": "uint8"
        },
        {
          "internalType": "uint256",
          "name": "tokenId",
          "type": "uint256"
        }
      ],
      "name": "getTokenURI",
      "outputs": [
        {
          "internalType": "string",
          "name": "",
          "type": "string"
        }
      ],
      "stateMutability": "view",
      "type": "function"
    },
    {
      "inputs": [
        {
          "internalType": "enum IAlchemyTokens.Token",
          "name": "token",
          "type": "uint8"
        }
      ],
      "name": "getTokensMinted",
      "outputs": [
        {
          "internalType": "uint256",
          "name": "",
          "type": "uint256"
        }
      ],
      "stateMutability": "view",
      "type": "function"
    },
    {
      "inputs": [
        {
          "internalType": "address",
          "name": "account",
          "type": "address"
        },
        {
          "internalType": "address",
          "name": "operator",
          "type": "address"
        }
      ],
      "name": "isApprovedForAll",
      "outputs": [
        {
          "internalType": "bool",
          "name": "",
          "type": "bool"
        }
      ],
      "stateMutability": "view",
      "type": "function"
    },
    {
      "inputs": [],
      "name": "lastMinted",
      "outputs": [
        {
          "internalType": "uint256",
          "name": "",
          "type": "uint256"
        }
      ],
      "stateMutability": "view",
      "type": "function"
    },
    {
      "inputs": [
        {
          "internalType": "address",
          "name": "_account",
          "type": "address"
        },
        {
          "internalType": "enum IAlchemyTokens.Token",
          "name": "_token",
          "type": "uint8"
        },
        {
          "internalType": "uint256",
          "name": "_amount",
          "type": "uint256"
        }
      ],
      "name": "mintBasicToken",
      "outputs": [],
      "stateMutability": "nonpayable",
      "type": "function"
    },
    {
      "inputs": [
        {
          "internalType": "address",
          "name": "_account",
          "type": "address"
        },
        {
          "internalType": "enum IAlchemyTokens.Token",
          "name": "_token",
          "type": "uint8"
        },
        {
          "internalType": "uint256",
          "name": "_amount",
          "type": "uint256"
        }
      ],
      "name": "mintCompoundToken",
      "outputs": [],
      "stateMutability": "nonpayable",
      "type": "function"
    },
    {
      "inputs": [],
      "name": "owner",
      "outputs": [
        {
          "internalType": "address",
          "name": "",
          "type": "address"
        }
      ],
      "stateMutability": "view",
      "type": "function"
    },
    {
      "inputs": [],
      "name": "renounceOwnership",
      "outputs": [],
      "stateMutability": "nonpayable",
      "type": "function"
    },
    {
      "inputs": [
        {
          "internalType": "address",
          "name": "from",
          "type": "address"
        },
        {
          "internalType": "address",
          "name": "to",
          "type": "address"
        },
        {
          "internalType": "uint256[]",
          "name": "ids",
          "type": "uint256[]"
        },
        {
          "internalType": "uint256[]",
          "name": "amounts",
          "type": "uint256[]"
        },
        {
          "internalType": "bytes",
          "name": "data",
          "type": "bytes"
        }
      ],
      "name": "safeBatchTransferFrom",
      "outputs": [],
      "stateMutability": "nonpayable",
      "type": "function"
    },
    {
      "inputs": [
        {
          "internalType": "address",
          "name": "from",
          "type": "address"
        },
        {
          "internalType": "address",
          "name": "to",
          "type": "address"
        },
        {
          "internalType": "uint256",
          "name": "id",
          "type": "uint256"
        },
        {
          "internalType": "uint256",
          "name": "amount",
          "type": "uint256"
        },
        {
          "internalType": "bytes",
          "name": "data",
          "type": "bytes"
        }
      ],
      "name": "safeTransferFrom",
      "outputs": [],
      "stateMutability": "nonpayable",
      "type": "function"
    },
    {
      "inputs": [
        {
          "internalType": "address",
          "name": "operator",
          "type": "address"
        },
        {
          "internalType": "bool",
          "name": "approved",
          "type": "bool"
        }
      ],
      "name": "setApprovalForAll",
      "outputs": [],
      "stateMutability": "nonpayable",
      "type": "function"
    },
    {
      "inputs": [
        {
          "internalType": "bytes4",
          "name": "interfaceId",
          "type": "bytes4"
        }
      ],
      "name": "supportsInterface",
      "outputs": [
        {
          "internalType": "bool",
          "name": "",
          "type": "bool"
        }
      ],
      "stateMutability": "view",
      "type": "function"
    },
    {
      "inputs": [
        {
          "internalType": "address",
          "name": "newOwner",
          "type": "address"
        }
      ],
      "name": "transferOwnership",
      "outputs": [],
      "stateMutability": "nonpayable",
      "type": "function"
    },
    {
      "inputs": [
        {
          "internalType": "uint256",
          "name": "",
          "type": "uint256"
        }
      ],
      "name": "uri",
      "outputs": [
        {
          "internalType": "string",
          "name": "",
          "type": "string"
        }
      ],
      "stateMutability": "view",
      "type": "function"
    }
  ],
  "bytecode": "0x608060405234801561001057600080fd5b5060408051602081019091526000815261002981610267565b5061003333610277565b604051806060016040528060368152602001612568603691396000805260056020527f05b8ccbb9d4d8fb16ea74ce3c29a41f1b461fbdaff4714a0d9a8eb05499746bc906100819082610368565b506040518060600160405280603681526020016125d460369139600160005260056020527f1471eb6eb2c5e789fc3de43f8ce62938c7d1836ec861730447e2ada8fd81017b906100d19082610368565b5060405180606001604052806036815260200161259e60369139600260005260056020527f89832631fb3c3307a103ba2c84ab569c64d6182a18893dcd163f0f1c2090733a906101219082610368565b5060405180606001604052806036815260200161267660369139600360005260056020527fa9bc9a3a348c357ba16b37005d7e6b3236198c0e939f4af8c5f19b8deeb8ebc0906101719082610368565b5060405180606001604052806036815260200161260a60369139600460005260056020527f3eec716f11ba9e820c81ca75eb978ffb45831ef8b7a53e5e422c26008e1ca6d5906101c19082610368565b5060405180606001604052806036815260200161264060369139600560008190526020527f458b30c2d72bfd2c6317304a4594ecbafe5f729d3111b65fdc3a33bd48e5432d906102119082610368565b506040518060600160405280603681526020016126ac60369139600660005260056020527f069400f22b28c6c362558d92f66163cec5671cba50b61abd2eecfcd0eaeac518906102619082610368565b50610426565b60026102738282610368565b5050565b600380546001600160a01b038381166001600160a01b0319831681179093556040519116919082907f8be0079c531659141344cd1fd0a4f28419497f9722a3daafe3b4186f6b6457e090600090a35050565b634e487b7160e01b600052604160045260246000fd5b600181811c908216806102f357607f821691505b60208210810361031357634e487b7160e01b600052602260045260246000fd5b50919050565b601f82111561036357806000526020600020601f840160051c810160208510156103405750805b601f840160051c820191505b81811015610360576000815560010161034c565b50505b505050565b81516001600160401b03811115610381576103816102c9565b6103958161038f84546102df565b84610319565b6020601f8211600181146103c957600083156103b15750848201515b600019600385901b1c1916600184901b178455610360565b600084815260208120601f198516915b828110156103f957878501518255602094850194600190920191016103d9565b50848210156104175786840151600019600387901b60f8161c191681555b50505050600190811b01905550565b612133806104356000396000f3fe608060405234801561001057600080fd5b50600436106101155760003560e01c80638da5cb5b116100a2578063bbc19ab011610071578063bbc19ab01461024d578063c78a6ad714610256578063e985e9c514610269578063f242432a146102a5578063f2fde38b146102b857600080fd5b80638da5cb5b146101f95780639c5171a914610214578063a22cb46514610227578063a29b3f5b1461023a57600080fd5b80632c120830116100e95780632c120830146101985780632eb2c2d6146101ab5780634e1273f4146101be578063715018a6146101de578063734e2f29146101e657600080fd5b8062fdd58e1461011a57806301ffc9a7146101405780630e89341c146101635780631263473914610183575b600080fd5b61012d610128366004611773565b6102cb565b6040519081526020015b60405180910390f35b61015361014e3660046117b3565b610364565b6040519015158152602001610137565b6101766101713660046117d7565b6103b4565b6040516101379190611840565b610196610191366004611862565b610448565b005b6101966101a6366004611862565b6104d0565b6101966101b93660046119eb565b61073f565b6101d16101cc366004611a9e565b610784565b6040516101379190611bad565b6101966108a5565b6101766101f4366004611bc0565b6108b9565b6003546040516001600160a01b039091168152602001610137565b61012d610222366004611bc0565b6108fb565b610196610235366004611bdb565b61093a565b610196610248366004611862565b610949565b61012d60045481565b610176610264366004611c17565b6109c1565b610153610277366004611c33565b6001600160a01b03918216600090815260016020908152604080832093909416825291909152205460ff1690565b6101966102b3366004611c66565b610ab4565b6101966102c6366004611cbe565b610af9565b60006001600160a01b03831661033b5760405162461bcd60e51b815260206004820152602a60248201527f455243313135353a2061646472657373207a65726f206973206e6f742061207660448201526930b634b21037bbb732b960b11b60648201526084015b60405180910390fd5b506000818152602081815260408083206001600160a01b03861684529091529020545b92915050565b60006001600160e01b03198216636cdb3d1360e11b148061039557506001600160e01b031982166303a24d0760e21b145b8061035e57506301ffc9a760e01b6001600160e01b031983161461035e565b6060600280546103c390611cd9565b80601f01602080910402602001604051908101604052809291908181526020018280546103ef90611cd9565b801561043c5780601f106104115761010080835404028352916020019161043c565b820191906000526020600020905b81548152906001019060200180831161041f57829003601f168201915b50505050509050919050565b610450610b72565b600282600681111561046457610464611d13565b11156104c05760405162461bcd60e51b815260206004820152602560248201527f43616e206f6e6c79206d696e742049524f4e2c20434f505045522c206f72205360448201526424a62b22a960d91b6064820152608401610332565b6104cb838383610bcc565b505050565b6104d8610b72565b60028260068111156104ec576104ec611d13565b11801561050b5750600682600681111561050857610508611d13565b11155b6105505760405162461bcd60e51b815260206004820152601660248201527524b73b30b634b21031b7b6b837bab732103a37b5b2b760511b6044820152606401610332565b610558611739565b6000600384600681111561056e5761056e611d13565b036105c0576040805160608101909152806000815260200160015b600681111561059a5761059a611d13565b815260200160005b60068111156105b3576105b3611d13565b9052915060029050610669565b60048460068111156105d4576105d4611d13565b036105fa57604080516060810190915280600181526020016002815260200160016105a2565b600584600681111561060e5761060e611d13565b0361062d57604080516060810190915280600081526020016002610589565b600684600681111561064157610641611d13565b0361066957505060408051606081018252600081526001602082015260029181019190915260035b60005b8160ff168160ff16101561072c57836106aa87858460ff166003811061069457610694611d29565b6020020151600681111561012857610128611d13565b10156106ef5760405162461bcd60e51b8152602060048201526014602482015273496e73756666696369656e742062616c616e636560601b6044820152606401610332565b61072486848360ff166003811061070857610708611d29565b6020020151600681111561071e5761071e611d13565b86610cb0565b60010161066c565b50610738858585610bcc565b5050505050565b6001600160a01b03851633148061075b575061075b8533610277565b6107775760405162461bcd60e51b815260040161033290611d3f565b6107388585858585610e31565b606081518351146107e95760405162461bcd60e51b815260206004820152602960248201527f455243313135353a206163636f756e747320616e6420696473206c656e677468604482015268040dad2e6dac2e8c6d60bb1b6064820152608401610332565b600083516001600160401b038111156108045761080461189f565b60405190808252806020026020018201604052801561082d578160200160208202803683370190505b50905060005b845181101561089d5761087885828151811061085157610851611d29565b602002602001015185838151811061086b5761086b611d29565b60200260200101516102cb565b82828151811061088a5761088a611d29565b6020908102919091010152600101610833565b509392505050565b6108ad610b72565b6108b76000611007565b565b6060600560008360068111156108d1576108d1611d13565b60068111156108e2576108e2611d13565b815260200190815260200160002080546103c390611cd9565b60006006600083600681111561091357610913611d13565b600681111561092457610924611d13565b8152602001908152602001600020549050919050565b610945338383611059565b5050565b806109608484600681111561012857610128611d13565b10156109a55760405162461bcd60e51b8152602060048201526014602482015273496e73756666696369656e742062616c616e636560601b6044820152606401610332565b6104cb838360068111156109bb576109bb611d13565b83610cb0565b6060600660008460068111156109d9576109d9611d13565b60068111156109ea576109ea611d13565b8152602001908152602001600020548210610a3e5760405162461bcd60e51b8152602060048201526014602482015273151bdad95b88191bd95cc81b9bdd08195e1a5cdd60621b6044820152606401610332565b6000610a4b600584611d8d565b905060056000856006811115610a6357610a63611d13565b6006811115610a7457610a74611d13565b8152602001908152602001600020610a8b82611139565b604051602001610a9c929190611dcb565b60405160208183030381529060405291505092915050565b6001600160a01b038516331480610ad05750610ad08533610277565b610aec5760405162461bcd60e51b815260040161033290611d3f565b61073885858585856111cb565b610b01610b72565b6001600160a01b038116610b665760405162461bcd60e51b815260206004820152602660248201527f4f776e61626c653a206e6577206f776e657220697320746865207a65726f206160448201526564647265737360d01b6064820152608401610332565b610b6f81611007565b50565b6003546001600160a01b031633146108b75760405162461bcd60e51b815260206004820181905260248201527f4f776e61626c653a2063616c6c6572206973206e6f7420746865206f776e65726044820152606401610332565b610bd4610b72565b42600454603c610be49190611e89565b10610c315760405162461bcd60e51b815260206004820152601d60248201527f43616e206d696e74206f6e6c79206f6e636520706572206d696e7574650000006044820152606401610332565b610c5d83836006811115610c4757610c47611d13565b83604051806020016040528060008152506112f5565b8060066000846006811115610c7457610c74611d13565b6006811115610c8557610c85611d13565b81526020019081526020016000206000828254610ca29190611e89565b909155505042600455505050565b6001600160a01b038316610d125760405162461bcd60e51b815260206004820152602360248201527f455243313135353a206275726e2066726f6d20746865207a65726f206164647260448201526265737360e81b6064820152608401610332565b336000610d1e84611400565b90506000610d2b84611400565b60408051602080820183526000918290528882528181528282206001600160a01b038b1683529052205490915084811015610db45760405162461bcd60e51b8152602060048201526024808201527f455243313135353a206275726e20616d6f756e7420657863656564732062616c604482015263616e636560e01b6064820152608401610332565b6000868152602081815260408083206001600160a01b038b81168086529184528285208a8703905582518b81529384018a90529092908816917fc3d58168c5ae7397731d063d5bbf3d657854427343f4c083240f7aacaa2d0f62910160405180910390a46040805160208101909152600090525b50505050505050565b8151835114610e935760405162461bcd60e51b815260206004820152602860248201527f455243313135353a2069647320616e6420616d6f756e7473206c656e677468206044820152670dad2e6dac2e8c6d60c31b6064820152608401610332565b6001600160a01b038416610eb95760405162461bcd60e51b815260040161033290611eaa565b3360005b8451811015610f99576000858281518110610eda57610eda611d29565b602002602001015190506000858381518110610ef857610ef8611d29565b602090810291909101810151600084815280835260408082206001600160a01b038e168352909352919091205490915081811015610f485760405162461bcd60e51b815260040161033290611eef565b6000838152602081815260408083206001600160a01b038e8116855292528083208585039055908b16825281208054849290610f85908490611e89565b909155505060019093019250610ebd915050565b50846001600160a01b0316866001600160a01b0316826001600160a01b03167f4a39dc06d4c0dbc64b70af90fd698a233a518aa5d07e595d983b8c0526c8f7fb8787604051610fe9929190611f39565b60405180910390a4610fff81878787878761144b565b505050505050565b600380546001600160a01b038381166001600160a01b0319831681179093556040519116919082907f8be0079c531659141344cd1fd0a4f28419497f9722a3daafe3b4186f6b6457e090600090a35050565b816001600160a01b0316836001600160a01b0316036110cc5760405162461bcd60e51b815260206004820152602960248201527f455243313135353a2073657474696e6720617070726f76616c20737461747573604482015268103337b91039b2b63360b91b6064820152608401610332565b6001600160a01b03838116600081815260016020908152604080832094871680845294825291829020805460ff191686151590811790915591519182527f17307eab39ab6107e8899845ad3d59bd9653f200f220920489ca2b5937696c31910160405180910390a3505050565b60606000611146836115a6565b60010190506000816001600160401b038111156111655761116561189f565b6040519080825280601f01601f19166020018201604052801561118f576020820181803683370190505b5090508181016020015b600019016f181899199a1a9b1b9c1cb0b131b232b360811b600a86061a8153600a850494508461119957509392505050565b6001600160a01b0384166111f15760405162461bcd60e51b815260040161033290611eaa565b3360006111fd85611400565b9050600061120a85611400565b90506000868152602081815260408083206001600160a01b038c1684529091529020548581101561124d5760405162461bcd60e51b815260040161033290611eef565b6000878152602081815260408083206001600160a01b038d8116855292528083208985039055908a1682528120805488929061128a908490611e89565b909155505060408051888152602081018890526001600160a01b03808b16928c821692918816917fc3d58168c5ae7397731d063d5bbf3d657854427343f4c083240f7aacaa2d0f62910160405180910390a46112ea848a8a8a8a8a61167e565b505050505050505050565b6001600160a01b0384166113555760405162461bcd60e51b815260206004820152602160248201527f455243313135353a206d696e7420746f20746865207a65726f206164647265736044820152607360f81b6064820152608401610332565b33600061136185611400565b9050600061136e85611400565b90506000868152602081815260408083206001600160a01b038b168452909152812080548792906113a0908490611e89565b909155505060408051878152602081018790526001600160a01b03808a1692600092918716917fc3d58168c5ae7397731d063d5bbf3d657854427343f4c083240f7aacaa2d0f62910160405180910390a4610e288360008989898961167e565b6040805160018082528183019092526060916000919060208083019080368337019050509050828160008151811061143a5761143a611d29565b602090810291909101015292915050565b6001600160a01b0384163b15610fff5760405163bc197c8160e01b81526001600160a01b0385169063bc197c819061148f9089908990889088908890600401611f5e565b6020604051808303816000875af19250505080156114ca575060408051601f3d908101601f191682019092526114c791810190611fbc565b60015b611576576114d6611fd9565b806308c379a00361150f57506114ea611ff5565b806114f55750611511565b8060405162461bcd60e51b81526004016103329190611840565b505b60405162461bcd60e51b815260206004820152603460248201527f455243313135353a207472616e7366657220746f206e6f6e2d455243313135356044820152732932b1b2b4bb32b91034b6b83632b6b2b73a32b960611b6064820152608401610332565b6001600160e01b0319811663bc197c8160e01b14610e285760405162461bcd60e51b815260040161033290612070565b60008072184f03e93ff9f4daa797ed6e38ed64bf6a1f0160401b83106115e55772184f03e93ff9f4daa797ed6e38ed64bf6a1f0160401b830492506040015b6d04ee2d6d415b85acef81000000008310611611576d04ee2d6d415b85acef8100000000830492506020015b662386f26fc10000831061162f57662386f26fc10000830492506010015b6305f5e1008310611647576305f5e100830492506008015b612710831061165b57612710830492506004015b6064831061166d576064830492506002015b600a831061035e5760010192915050565b6001600160a01b0384163b15610fff5760405163f23a6e6160e01b81526001600160a01b0385169063f23a6e61906116c290899089908890889088906004016120b8565b6020604051808303816000875af19250505080156116fd575060408051601f3d908101601f191682019092526116fa91810190611fbc565b60015b611709576114d6611fd9565b6001600160e01b0319811663f23a6e6160e01b14610e285760405162461bcd60e51b815260040161033290612070565b60405180606001604052806003906020820280368337509192915050565b80356001600160a01b038116811461176e57600080fd5b919050565b6000806040838503121561178657600080fd5b61178f83611757565b946020939093013593505050565b6001600160e01b031981168114610b6f57600080fd5b6000602082840312156117c557600080fd5b81356117d08161179d565b9392505050565b6000602082840312156117e957600080fd5b5035919050565b60005b8381101561180b5781810151838201526020016117f3565b50506000910152565b6000815180845261182c8160208601602086016117f0565b601f01601f19169290920160200192915050565b6020815260006117d06020830184611814565b80356007811061176e57600080fd5b60008060006060848603121561187757600080fd5b61188084611757565b925061188e60208501611853565b929592945050506040919091013590565b634e487b7160e01b600052604160045260246000fd5b601f8201601f191681016001600160401b03811182821017156118da576118da61189f565b6040525050565b60006001600160401b038211156118fa576118fa61189f565b5060051b60200190565b600082601f83011261191557600080fd5b8135611920816118e1565b60405161192d82826118b5565b80915082815260208101915060208360051b86010192508583111561195157600080fd5b602085015b8381101561196e578035835260209283019201611956565b5095945050505050565b600082601f83011261198957600080fd5b81356001600160401b038111156119a2576119a261189f565b6040516119b9601f8301601f1916602001826118b5565b8181528460208386010111156119ce57600080fd5b816020850160208301376000918101602001919091529392505050565b600080600080600060a08688031215611a0357600080fd5b611a0c86611757565b9450611a1a60208701611757565b935060408601356001600160401b03811115611a3557600080fd5b611a4188828901611904565b93505060608601356001600160401b03811115611a5d57600080fd5b611a6988828901611904565b92505060808601356001600160401b03811115611a8557600080fd5b611a9188828901611978565b9150509295509295909350565b60008060408385031215611ab157600080fd5b82356001600160401b03811115611ac757600080fd5b8301601f81018513611ad857600080fd5b8035611ae3816118e1565b604051611af082826118b5565b80915082815260208101915060208360051b850101925087831115611b1457600080fd5b6020840193505b82841015611b3d57611b2c84611757565b825260209384019390910190611b1b565b945050505060208301356001600160401b03811115611b5b57600080fd5b611b6785828601611904565b9150509250929050565b600081518084526020840193506020830160005b82811015611ba3578151865260209586019590910190600101611b85565b5093949350505050565b6020815260006117d06020830184611b71565b600060208284031215611bd257600080fd5b6117d082611853565b60008060408385031215611bee57600080fd5b611bf783611757565b915060208301358015158114611c0c57600080fd5b809150509250929050565b60008060408385031215611c2a57600080fd5b61178f83611853565b60008060408385031215611c4657600080fd5b611c4f83611757565b9150611c5d60208401611757565b90509250929050565b600080600080600060a08688031215611c7e57600080fd5b611c8786611757565b9450611c9560208701611757565b9350604086013592506060860135915060808601356001600160401b03811115611a8557600080fd5b600060208284031215611cd057600080fd5b6117d082611757565b600181811c90821680611ced57607f821691505b602082108103611d0d57634e487b7160e01b600052602260045260246000fd5b50919050565b634e487b7160e01b600052602160045260246000fd5b634e487b7160e01b600052603260045260246000fd5b6020808252602e908201527f455243313135353a2063616c6c6572206973206e6f7420746f6b656e206f776e60408201526d195c881bdc88185c1c1c9bdd995960921b606082015260800190565b600082611daa57634e487b7160e01b600052601260045260246000fd5b500690565b60008151611dc18185602086016117f0565b9290920192915050565b6000808454818160011c90506001821680611de757607f821691505b602082108103611e0557634e487b7160e01b84526022600452602484fd5b808015611e195760018114611e2e57611e5e565b60ff1984168752821515830287019450611e5e565b60008981526020902060005b84811015611e5657815489820152600190910190602001611e3a565b505082870194505b50505050611e80611e6f8286611daf565b64173539b7b760d91b815260050190565b95945050505050565b8082018082111561035e57634e487b7160e01b600052601160045260246000fd5b60208082526025908201527f455243313135353a207472616e7366657220746f20746865207a65726f206164604082015264647265737360d81b606082015260800190565b6020808252602a908201527f455243313135353a20696e73756666696369656e742062616c616e636520666f60408201526939103a3930b739b332b960b11b606082015260800190565b604081526000611f4c6040830185611b71565b8281036020840152611e808185611b71565b6001600160a01b0386811682528516602082015260a060408201819052600090611f8a90830186611b71565b8281036060840152611f9c8186611b71565b90508281036080840152611fb08185611814565b98975050505050505050565b600060208284031215611fce57600080fd5b81516117d08161179d565b600060033d1115611ff25760046000803e5060005160e01c5b90565b600060443d10156120035790565b6040513d600319016004823e80513d60248201116001600160401b038211171561202c57505090565b80820180516001600160401b03811115612047575050505090565b3d8401600319018282016020011115612061575050505090565b61089d602082850101856118b5565b60208082526028908201527f455243313135353a204552433131353552656365697665722072656a656374656040820152676420746f6b656e7360c01b606082015260800190565b6001600160a01b03868116825285166020820152604081018490526060810183905260a0608082018190526000906120f290830184611814565b97965050505050505056fea26469706673582212200d789d48843021947573547b41b20c6ad0ccaa773b15e83889c927c249ecee2164736f6c634300081a0033697066733a2f2f516d5a3361653852764c39315269567879364d4843375a773333634e4d555a68396a6748616e5270704e313763692f697066733a2f2f516d6556366f48455450784e654b71453732467a7948366b584535434a65425a343244634a4434315a50714742472f697066733a2f2f516d644b6633554e376a58757366454d6f6f41747043536b63367a434d576f69575034564150434c6953733278692f697066733a2f2f516d5853696f66617943593150543738684d78624158596659415552356a765a4e425136534d336638434b6779422f697066733a2f2f516d57774d3639454d4c716539684843556353694a454a78654c59443746377644506436636e6838334373324b6d2f697066733a2f2f516d65787632694c574b4351796f6a786333536b67746e643541505658476378506a46775577376e764a714676332f697066733a2f2f516d62416a596151476353626936363832504463686a3563796947577a58486b69684a504b6177707975313755762f",
  "linkReferences": {},
  "deployedLinkReferences": {}
}